:100000000C9461000C947E000C947E000C947E0095
:100010000C947E000C947E000C947E000C947E0068
:100020000C947E000C947E000C947E000C947E0058
:100030000C947E000C947E000C947E000C947E0048
:100040000C949A000C947E000C947E000C947E001C
:100050000C947E000C947E000C947E000C947E0028
:100060000C947E000C947E00000000002400270009
:100070002A0000000000250028002B0000000000DE
:1000800023002600290004040404040404040202DA
:100090000202020203030303030301020408102007
:1000A0004080010204081020010204081020000012
:1000B0000007000201000003040600000000000029
:1000C000000011241FBECFEFD8E0DEBFCDBF11E08E
:1000D000A0E0B1E0E6E1F4E002C005900D92A030AE
:1000E000B107D9F711E0A0E0B1E001C01D92A9303D
:1000F000B107E1F70E9402020C9409020C9400007F
:1001000085E061E00E94AA0168EE73E080E090E083
:100110000E94DF0085E060E00E94AA0168EE73E0C3
:1001200080E090E00E94DF00089585E061E00E9499
:10013000840108951F920F920FB60F9211242F93EE
:100140003F938F939F93AF93BF93809104019091BE
:100150000501A0910601B091070130910801232FFC
:100160002A592D3720F02D570196A11DB11D20933E
:1001700008018093040190930501A0930601B093B8
:1001800007018091000190910101A0910201B091BD
:1001900003010196A11DB11D8093000190930101FF
:1001A000A0930201B0930301BF91AF919F918F91F2
:1001B0003F912F910F900FBE0F901F901895EF92C7
:1001C000FF920F931F937B018C019FB7F8942091AE
:1001D000000130910101409102015091030186B567
:1001E000A89B06C08F3F21F02F5F3F4F4F4F5F4FBF
:1001F0009FBF542F432F322F2227280F311D411D1F
:10020000511DDA01C901880F991FAA1FBB1F820F58
:10021000931FA41FB51FBC0132C09FB7F894209153
:10022000000130910101409102015091030186B516
:10023000A89B06C08F3F21F02F5F3F4F4F4F5F4F6E
:100240009FBF542F432F322F2227280F311D411DCE
:10025000511DDA01C901880F991FAA1FBB1F820F08
:10026000931FA41FB51F861B970B885E9340A8F2AF
:100270000894E108F1080109110968517C4FE11463
:10028000F1040105110549F61F910F91FF90EF90C0
:100290000895789484B5826084BD84B5816084BDFE
:1002A00085B5826085BD85B5816085BDEEE6F0E0EF
:1002B000808181608083E1E8F0E01082808182604B
:1002C0008083808181608083E0E8F0E080818160CC
:1002D0008083E1EBF0E0808184608083E0EBF0E0FC
:1002E000808181608083EAE7F0E0808184608083A0
:1002F000808182608083808181608083808180684A
:1003000080831092C1000895482F50E0CA0186569C
:100310009F4FFC0124914A575F4FFA018491882333
:10032000C1F0E82FF0E0EE0FFF1FE859FF4FA59155
:10033000B491662341F49FB7F8948C912095822361
:100340008C939FBF08959FB7F8948C91822B8C93C8
:100350009FBF0895482F50E0CA0182559F4FFC016E
:100360002491CA0186569F4FFC0134914A575F4F32
:10037000FA019491992309F444C0222351F12330C6
:1003800071F0243028F42130A1F0223011F514C08E
:100390002630B1F02730C1F02430D9F404C0809168
:1003A00080008F7703C0809180008F7D80938000D4
:1003B00010C084B58F7702C084B58F7D84BD09C01D
:1003C0008091B0008F7703C08091B0008F7D8093C3
:1003D000B000E92FF0E0EE0FFF1FEE58FF4FA591A0
:1003E000B491662341F49FB7F8948C9130958323A0
:1003F0008C939FBF08959FB7F8948C91832B8C9317
:100400009FBF08950E9449010E9495000E948000AC
:06041000FDCFF894FFCFC0
:00000001FF
