:100000000C9462000C948A000C948A000C948A0070
:100010000C948A000C948A000C948A000C948A0038
:100020000C948A000C948A000C948A000C948A0028
:100030000C948A000C948A000C948A000C948A0018
:100040000C94B2000C948A000C941A020C948A004E
:100050000C948A000C948A000C948A000C948A00F8
:100060000C948A000C948A000000000024002700F1
:100070002A0000000000250028002B0000000000DE
:1000800023002600290004040404040404040202DA
:100090000202020203030303030301020408102007
:1000A0004080010204081020010204081020000012
:1000B0000007000201000003040600000000000029
:1000C0000000210311241FBECFEFD8E0DEBFCDBF5B
:1000D00011E0A0E0B1E0ECEBF7E002C005900D927A
:1000E000A231B107D9F711E0A2E1B1E001C01D9240
:1000F000A23BB107E1F710E0C4ECD0E004C02297C6
:10010000FE010E94D803C23CD107C9F70E945B03DD
:100110000C94DC030C9400008FE991E00E94B30280
:10012000892B91F08FE991E00E94DE0285E061E089
:100130000E94C20168EE73E080E090E00E94F70048
:1001400085E060E00E94C20108958FE991E040E0FF
:1001500052EC61E070E00E944B0285E061E00E9499
:100160009C0108951F920F920FB60F9211242F93A6
:100170003F938F939F93AF93BF938091160190917C
:100180001701A0911801B091190130911A01232F84
:100190002A592D3720F02D570196A11DB11D20930E
:1001A0001A018093160190931701A0931801B09340
:1001B00019018091120190911301A0911401B09145
:1001C00015010196A11DB11D809312019093130199
:1001D000A0931401B0931501BF91AF919F918F919E
:1001E0003F912F910F900FBE0F901F901895EF9297
:1001F000FF920F931F937B018C019FB7F89420917E
:10020000120130911301409114015091150186B5EE
:10021000A89B06C08F3F21F02F5F3F4F4F4F5F4F8E
:100220009FBF542F432F322F2227280F311D411DEE
:10023000511DDA01C901880F991FAA1FBB1F820F28
:10024000931FA41FB51FBC0132C09FB7F894209123
:10025000120130911301409114015091150186B59E
:10026000A89B06C08F3F21F02F5F3F4F4F4F5F4F3E
:100270009FBF542F432F322F2227280F311D411D9E
:10028000511DDA01C901880F991FAA1FBB1F820FD8
:10029000931FA41FB51F861B970B885E9340A8F27F
:1002A0000894E108F1080109110968517C4FE11433
:1002B000F1040105110549F61F910F91FF90EF9090
:1002C0000895789484B5826084BD84B5816084BDCE
:1002D00085B5826085BD85B5816085BDEEE6F0E0BF
:1002E000808181608083E1E8F0E01082808182601B
:1002F0008083808181608083E0E8F0E0808181609C
:100300008083E1EBF0E0808184608083E0EBF0E0CB
:10031000808181608083EAE7F0E08081846080836F
:100320008081826080838081816080838081806819
:1003300080831092C1000895482F50E0CA0186566C
:100340009F4FFC0124914A575F4FFA018491882303
:10035000C1F0E82FF0E0EE0FFF1FE859FF4FA59125
:10036000B491662341F49FB7F8948C912095822331
:100370008C939FBF08959FB7F8948C91822B8C9398
:100380009FBF0895482F50E0CA0182559F4FFC013E
:100390002491CA0186569F4FFC0134914A575F4F02
:1003A000FA019491992309F444C0222351F1233096
:1003B00071F0243028F42130A1F0223011F514C05E
:1003C0002630B1F02730C1F02430D9F404C0809138
:1003D00080008F7703C0809180008F7D80938000A4
:1003E00010C084B58F7702C084B58F7D84BD09C0ED
:1003F0008091B0008F7703C08091B0008F7D809393
:10040000B000E92FF0E0EE0FFF1FEE58FF4FA5916F
:10041000B491662341F49FB7F8948C91309583236F
:100420008C939FBF08959FB7F8948C91832B8C93E6
:100430009FBF08951F920F920FB60F9211242F9312
:100440003F934F938F939F93EF93FF934091C600F9
:10045000E0919B01F0919C0131969F012F773070C4
:10046000319780919D0190919E012817390739F0AD
:10047000E55EFE4F408330939C0120939B01FF91EA
:10048000EF919F918F914F913F912F910F900FBEC0
:100490000F901F901895EF92FF920F931F938C016E
:1004A0009A01AB01DC011896ED91FC91199781E05E
:1004B000E82EF12CC70152960C9002C0880F991FAC
:1004C0000A94E2F7808360E47BE48CE490E00E948D
:1004D000BB032150304040405040CA01B90122E0E6
:1004E00030E040E050E00E94BB03D8011496ED914B
:1004F000FC91159730831696ED91FC911797208308
:100500001A96ED91FC911B972081C7011E960C90C5
:100510001E9702C0880F991F0A94E2F7282B2083A8
:100520001A96ED91FC911B972081C7011F960C90A4
:100530001F9702C0880F991F0A94E2F7282B208387
:100540001A96ED91FC911B97808150960C9002C0F9
:10055000EE0CFF1C0A94E2F78E2980831F910F9105
:10056000FF90EF900895DC011296ED91FC911397A6
:10057000E058FF4F2191319180819181281B390BE7
:100580002F773070C9010895DC011296ED91FC912E
:100590001397EE57FF4F2081318192918291E0585D
:1005A000F0408217930719F42FEF3FEF05C0E20FD9
:1005B000F31F8081282F30E0C9010895DC011296D5
:1005C000ED91FC911397DF01AE57BF4F2D913C91F8
:1005D0001197E058FF4F80819181E058F0408217D9
:1005E000930719F42FEF3FEF0BC0E20FF31F808149
:1005F0002F5F3F4F2F7730702D933C93282F30E0A3
:10060000C9010895DC011296ED91FC911397EE5704
:10061000FF4F80819181929382930895FC01A08580
:10062000B18521898C9190E0022E02C09595879525
:100630000A94E2F780FFF6CF0484F585E02D60830D
:10064000089584E091E09093A00180939F018BE155
:1006500091E09093A2018093A10185EC90E09093AA
:10066000A4018093A30184EC90E09093A601809371
:10067000A50180EC90E09093A8018093A70181EC04
:1006800090E09093AA018093A90186EC90E090936A
:10069000AC018093AB0184E08093AD0183E0809353
:1006A000AE0187E08093AF0185E08093B00181E0E7
:1006B0008093B10108950E9461010E94A5000E94EB
:1006C0008C00FDCF0F931F93CF93DF938C01EB0131
:1006D00009C02196D801ED91FC910190F081E02DA7
:1006E000C801099568816623A1F7DF91CF911F9119
:1006F0000F910895EF92FF920F931F93CF93DF9383
:100700008C017B01EA010CC0D7016D917D01D801FC
:10071000ED91FC910190F081E02DC80109952197A0
:10072000209791F7DF91CF911F910F91FF90EF905C
:100730000895A1E21A2EAA1BBB1BFD010DC0AA1F22
:10074000BB1FEE1FFF1FA217B307E407F50720F03A
:10075000A21BB30BE40BF50B661F771F881F991FB5
:100760001A9469F760957095809590959B01AC01FE
:10077000BD01CF01089597FB092E05260ED057FD28
:1007800004D0D7DF0AD0001C38F45095409530953E
:1007900021953F4F4F4F5F4F0895F6F79095809505
:1007A000709561957F4F8F4F9F4F0895EE0FFF1FFC
:0C07B0000590F491E02D0994F894FFCF1F
:1007BC00000000000E0362037A03B302DE02C402DF
:0207CC00020326
:00000001FF
