:100000000C9463000C948B000C948B000C948B006C
:100010000C948B000C948B000C948B000C94E202DB
:100020000C948B000C948B000C948B000C948B0024
:100030000C948B000C948B000C948B000C948B0014
:100040000C9454050C948B000C942B010C948B0095
:100050000C948B000C948B000C948B000C948B00F4
:100060000C948B000C948B000200000000240027ED
:10007000002A0000000000250028002B00000000DE
:1000800000230026002900040404040404040402DC
:100090000202020202030303030303010204081025
:1000A00020408001020408102001020408102000F2
:1000B0000000070002010000030406000000000029
:1000C00000000000320211241FBECFEFD8E0DEBFD7
:1000D000CDBF11E0A0E0B1E0E0E7FCE002C0059098
:1000E0000D92A431B107D9F711E0A4E1B1E001C04C
:1000F0001D92A93CB107E1F710E0C6ECD0E004C0C6
:100100002297FE010E943206C43CD107C9F70E9423
:100110006C020C9436060C94000088E991E00E9471
:10012000C401892B61F088E991E00E94EF01BC01D4
:1001300085E020E030E040E050E00E943E0308957A
:1001400088E991E040E052EC61E070E00E945C01DF
:1001500085E061E00E94AD000895482F50E0CA019B
:1001600085569F4FFC01249149575F4FFA018491B6
:100170008823C1F0E82FF0E0EE0FFF1FE759FF4F93
:10018000A591B491662341F49FB7F8948C91209582
:1001900082238C939FBF08959FB7F8948C91822BF4
:1001A0008C939FBF0895482F50E0CA0181559F4FFF
:1001B000FC012491CA0185569F4FFC013491495797
:1001C0005F4FFA019491992309F444C0222351F11D
:1001D000233071F0243028F42130A1F0223011F5C1
:1001E00014C02630B1F02730C1F02430D9F404C057
:1001F000809180008F7703C0809180008F7D8093F5
:10020000800010C084B58F7702C084B58F7D84BD17
:1002100009C08091B0008F7703C08091B0008F7DBE
:100220008093B000E92FF0E0EE0FFF1FED58FF4F75
:10023000A591B491662341F49FB7F8948C913095C1
:1002400083238C939FBF08959FB7F8948C91832B41
:100250008C939FBF08951F920F920FB60F92112497
:100260002F933F934F938F939F93EF93FF934091DF
:10027000C600E0919401F091950131969F012F778E
:100280003070319780919601909197012817390726
:1002900039F0EC5EFE4F408330939501209394013A
:1002A000FF91EF919F918F914F913F912F910F90DF
:1002B0000FBE0F901F901895EF92FF920F931F9310
:1002C0008C019A01AB01DC011896ED91FC91199714
:1002D00081E0E82EF12CC70152960C9002C0880FE5
:1002E000991F0A94E2F7808360E47BE48CE490E059
:1002F0000E9415062150304040405040CA01B901CB
:1003000022E030E040E050E00E941506D80114964B
:10031000ED91FC91159730831696ED91FC9117970E
:1003200020831A96ED91FC911B972081C7011E96A0
:100330000C901E9702C0880F991F0A94E2F7282B91
:1003400020831A96ED91FC911B972081C7011F967F
:100350000C901F9702C0880F991F0A94E2F7282B70
:1003600020831A96ED91FC911B97808150960C90FA
:1003700002C0EE0CFF1C0A94E2F78E2980831F91C5
:100380000F91FF90EF900895DC011296ED91FC9192
:100390001397E058FF4F2191319180819181281B63
:1003A000390B2F773070C9010895DC011296ED9159
:1003B000FC911397EE57FF4F2081318192918291EA
:1003C000E058F0408217930719F42FEF3FEF05C074
:1003D000E20FF31F8081282F30E0C9010895DC016E
:1003E0001296ED91FC911397DF01AE57BF4F2D91FF
:1003F0003C911197E058FF4F80819181E058F04087
:100400008217930719F42FEF3FEF0BC0E20FF31F92
:1004100080812F5F3F4F2F7730702D933C93282F93
:1004200030E0C9010895DC011296ED91FC9113971B
:10043000EE57FF4F80819181929382930895FC0142
:10044000A085B18521898C9190E0022E02C09595FE
:1004500087950A94E2F780FFF6CF0484F585E02DB6
:100460006083089585E091E09093990180939801CD
:1004700084E191E090939B0180939A0185EC90E058
:1004800090939D0180939C0184EC90E090939F0158
:1004900080939E0180EC90E09093A1018093A00155
:1004A00081EC90E09093A3018093A20186EC90E010
:1004B0009093A5018093A40184E08093A60183E03A
:1004C0008093A70187E08093A80185E08093A9012C
:1004D00081E08093AA0108950E9499050E94A000DE
:1004E0000E948D00FDCF0F931F93CF93DF938C015C
:1004F000EB0109C02196D801ED91FC910190F081AA
:10050000E02DC801099568816623A1F7DF91CF919D
:100510001F910F910895EF92FF920F931F93CF9326
:10052000DF938C017B01EA010CC0D7016D917D0145
:10053000D801ED91FC910190F081E02DC801099561
:100540002197209791F7DF91CF911F910F91FF9005
:10055000EF900895813041F0813018F08230D1F46D
:1005600009C010926E00089580916F008D7F809376
:100570006F000895809170008D7F8093700081E0FE
:100580008093B0008091B100887F84608093B10037
:100590001092B30008951F93182F809100018117C6
:1005A00011F09FEF06C0E8E6F0E094918FEF8093A2
:1005B0000001892F0E94AA02812F60E00E94D300CF
:1005C0001F9108951F920F920FB60F9211242F932F
:1005D0003F934F935F936F937F938F939F93AF93CB
:1005E000BF93EF93FF938091B9019091BA01A091CD
:1005F000BB01B091BC010097A105B10551F1E0919B
:10060000BD01F091BE0180819091BF018927808357
:100610008091B9019091BA01A091BB01B091BC0148
:10062000181619061A061B06C4F48091B901909198
:10063000BA01A091BB01B091BC010197A109B10918
:100640008093B9019093BA01A093BB01B093BC0110
:1006500004C0809100010E94CB02FF91EF91BF91F5
:10066000AF919F918F917F916F915F914F913F914A
:100670002F910F900FBE0F901F9018952F923F92C1
:100680005F926F927F928F929F92AF92BF92CF9222
:10069000DF92EF92FF920F931F93DF93CF9300D0DF
:1006A00000D0CDB7DEB7A82F1B0129833A834B8337
:1006B0005C83809100018A1721F4E8E6F0E0549011
:1006C00082C08F3F09F0DAC1A0930001E8E6F0E0B4
:1006D00054902FEF521609F4D1C181E0581639F128
:1006E00092E0591609F449C0552009F06CC014BCB9
:1006F00015BC84B5826084BD85B5816085BD2A2F17
:1007000030E0F901E957FF4FE491F0E0EE0FFF1FF1
:10071000ED58FF4F859194919093B0018093AF0174
:1007200025563F4FF90184918093B1014EC010923C
:100730008000109281008091810088608093810008
:10074000809181008160809381002A2F30E0F9013F
:10075000E957FF4FE491F0E0EE0FFF1FED58FF4F18
:10076000859194919093B7018093B60125563F4FA0
:10077000F90184918093B80128C01092B0001092C2
:10078000B1008091B00082608093B0008091B10090
:1007900081608093B1002A2F30E0F901E957FF4FC3
:1007A000E491F0E0EE0FFF1FED58FF4F859194911B
:1007B0009093BE018093BD0125563F4FF90184916E
:1007C0008093BF0102C057FC59C18A2F61E00E948B
:1007D000AD00552021F0F2E05F1609F0BEC03101F6
:1007E0008824992460E876E988E990E0A4019301DF
:1007F0000E94150659016A01860175010894E108F5
:10080000F108010911092FEFE216F10401051105A4
:1008100009F008F499C060ED72E183E190E0A40171
:1008200093010E94150679018A010894E108F108F4
:100830000109110982E05816C1F49FEFE916F1048D
:100840000105110509F008F484C064EB74EC84E040
:1008500090E0A40193010E94150679018A01089491
:10086000E108F1080109110983E0AFEFEA16F1048C
:100870000105110509F008F468C06AE572E682E036
:1008800090E0A40193010E94150679018A01089461
:10089000E108F10801091109552011F483E01DC098
:1008A000B2E05B1611F084E018C0EFEFEE16F10431
:1008B0000105110509F008F4DFC06DE271E381E084
:1008C00090E0A40193010E94150679018A01089421
:1008D000E108F1080109110985E0FFEFEF16F104C5
:1008E0000105110591F188F1C601B50120E031E063
:1008F00040E050E00E94150679018A010894E10861
:10090000F10801091109552011F086E001C084E0C9
:100910002FEFE216F10401051105B9F0B0F0C601A0
:10092000B50120E034E040E050E00E941506790176
:100930008A010894E108F10801091109552011F014
:1009400087E008C085E003C081E0552019F485BD2B
:100950003AC082E08093B10036C05101CC24DD243E
:1009600060E876E988E990E0A60195010E94150605
:1009700079018A010894E108F1080109110980E070
:10098000E81680E0F80681E0080780E0180710F418
:1009900091E010C06AE572E682E090E0A601950160
:1009A0000E94150679018A010894E108F1080109FD
:1009B000110993E0A1E05A1631F480918100887FFB
:1009C000982B9093810089819A81AB81BC8100979B
:1009D000A105B10529F48FEF9FEFAFEFBFEF13C073
:1009E000220C331CB10180E090E029813A814B81D7
:1009F0005C810E94D40528EE33E040E050E00E9484
:100A0000F305C901DA01E1E05E16A1F0F2E05F163C
:100A100019F1552099F5E7BC8093AB019093AC0197
:100A2000A093AD01B093AE0180916E00826080937F
:100A30006E0024C0F0928900E09288008093B20199
:100A40009093B301A093B401B093B50180916F006E
:100A5000826080936F0012C0E092B3008093B9016E
:100A60009093BA01A093BB01B093BC018091700038
:100A700082608093700002C084E06CCF0F900F9072
:100A80000F900F90CF91DF911F910F91FF90EF90FA
:100A9000DF90CF90BF90AF909F908F907F906F909E
:100AA0005F903F902F9008951F920F920FB60F9274
:100AB00011242F933F938F939F93AF93BF93809174
:100AC000C4019091C501A091C601B091C7013091B8
:100AD000C801232F2A592D3720F02D570196A11D2B
:100AE000B11D2093C8018093C4019093C501A093C8
:100AF000C601B093C7018091C0019091C101A0913E
:100B0000C201B091C3010196A11DB11D8093C00126
:100B10009093C101A093C201B093C301BF91AF9163
:100B20009F918F913F912F910F900FBE0F901F902B
:100B30001895789484B5826084BD84B5816084BD45
:100B400085B5826085BD85B5816085BDEEE6F0E046
:100B5000808181608083E1E8F0E0108280818260A2
:100B60008083808181608083E0E8F0E08081816023
:100B70008083E1EBF0E0808184608083E0EBF0E053
:100B8000808181608083EAE7F0E0808184608083F7
:100B900080818260808380818160808380818068A1
:100BA00080831092C1000895629FD001739FF0016D
:100BB000829FE00DF11D649FE00DF11D929FF00DED
:100BC000839FF00D749FF00D659FF00D9927729F24
:100BD000B00DE11DF91F639FB00DE11DF91FBD01AF
:100BE000CF0111240895A1E21A2EAA1BBB1BFD01FF
:100BF0000DC0AA1FBB1FEE1FFF1FA217B307E407FC
:100C0000F50720F0A21BB30BE40BF50B661F771F53
:100C1000881F991F1A9469F7609570958095909533
:100C20009B01AC01BD01CF01089597FB092E05265C
:100C30000ED057FD04D0D7DF0AD0001C38F45095F1
:100C40004095309521953F4F4F4F5F4F0895F6F7F0
:100C500090958095709561957F4F8F4F9F4F089528
:100C6000EE0FFF1F0590F491E02D0994F894FFCF4B
:100C7000FF000000001F0273028B02C401EF01D5C8
:040C8000011302005A
:00000001FF
