:100000000C945E000C9486000C9486000C94860080
:100010000C9486000C9486000C9486000C94990431
:100020000C9486000C9486000C9486000C94860038
:100030000C9486000C9486000C9486000C94860028
:100040000C9453040C9486000C947C050C94560577
:100050000C9486000C9486000C9486000C94860008
:100060000C9486000C948600000000080002010039
:100070000003040700000000000000000200000070
:1000800000250028002B0000000000240027002A83
:100090000004040404040404040202020202020331
:1000A000030303030301020408102040800102043B
:1000B000081020010204081020002B0611241FBE86
:1000C000CFEFD8E0DEBFCDBF21E0A4E1B1E001C0B9
:1000D0001D92AF3CB207E1F711E0A0E0B1E0E0E82B
:1000E000FDE002C005900D92A431B107D9F710E0F0
:1000F000CEE5D0E004C02197FE010E94B306CD35C5
:10010000D107C9F70E94AE050C94BE060C940000FE
:10011000EAEAF0E02491E6E9F0E08491882399F09E
:1001200090E0880F991FFC01E957FF4FA591B4910A
:10013000FC01E358FF4F859194918FB7F894EC91AF
:10014000E22BEC938FBF08952FB7F89480912E0186
:1001500090912F01A0913001B09131012FBF809378
:100160003A0190933B01A0933C01B0933D01E09193
:100170003201F09133010484F585E02D82E391E0B2
:10018000099597FF26C02FB7F89480912E01909182
:100190002F01A0913001B09131012FBF40913A0160
:1001A00050913B0160913C0170913D01841B950B86
:1001B000A60BB70B40913601509137016091380181
:1001C0007091390184179507A607B70780F28FEF62
:1001D0009FEF0895CF92DF92EF92FF920F931F93BC
:1001E000CF93DF936C017A018B01C0E0D0E0CE1594
:1001F000DF0589F0D8016D918D01D601ED91FC915B
:100200000190F081E02DC6010995892B11F47E0142
:1002100002C02196ECCFC701DF91CF911F910F91C2
:10022000FF90EF90DF90CF900895089580E090E0E8
:100230000895FC01538D448D252F30E0842F90E0EC
:10024000821B930B541710F0CF96089501970895D1
:10025000FC01918D828D981761F0828DDF01A80FCE
:10026000B11D5D968C91928D9F5F9F73928F90E0F0
:1002700008958FEF9FEF0895FC01918D828D98175F
:1002800031F0828DE80FF11D858D90E008958FEF9C
:100290009FEF0895FC01918D228D892F90E0805C65
:1002A0009F4F821B91098F739927089582E391E0F4
:1002B0000E944A0121E0892B09F420E0822F089551
:1002C000FC01848DDF01A80FB11DA35ABF4F2C91F3
:1002D000848D90E001968F739927848FA689B789C2
:1002E0002C93A089B1898C9180648C93938D848D9B
:1002F000981306C00288F389E02D80818F7D80836A
:100300000895EF92FF920F931F93CF93DF93EC0129
:1003100081E0888F9B8D8C8D981305C0E889F989C1
:10032000808185FD24C0F62E0B8D10E00F5F1F4FDE
:100330000F731127E02E8C8DE8120CC00FB607FC4E
:10034000FACFE889F989808185FFF5CFCE010E9437
:100350006001F1CF8B8DFE01E80FF11DE35AFF4FD5
:10036000F0820B8FEA89FB898081806207C0EE8969
:10037000FF896083E889F98980818064808381E0D6
:1003800090E0DF91CF911F910F91FF90EF90089532
:10039000CF93DF93EC01888D8823C9F0EA89FB892C
:1003A000808185FD05C0A889B9898C9186FD0FC023
:1003B0000FB607FCF5CF808185FFF2CFA889B989F8
:1003C0008C9185FFEDCFCE010E946001E7CFDF91D8
:1003D000CF9108958F929F92AF92BF92CF92DF926A
:1003E000EF92FF921F93CF93DF9300D000D0CDB751
:1003F000DEB70E94A400FC0197FD11C08D3291056B
:1004000091F0C0970A9778F0E0913201F0913301B2
:100410000284F385E02D82E391E00995EACF812CF7
:10042000912C54012DC020E030E0A90110E0E13012
:10043000F10509F000C2E0913201F091330102842C
:10044000F385E02D82E391E029833A834B835C833B
:1004500009950E94A400FC01C09729813A814B8133
:100460005C810A9720F3E130F10509F3112309F4C7
:10047000FFC1882499245401821A930AA40AB50A58
:1004800080910001853021F08F3F09F0F4C104C054
:10049000ECE7F0E0149172C085E080930001ECE796
:1004A000F0E014911F3F09F4E6C1113009F1123058
:1004B00009F441C0111162C014BC15BC84B582603E
:1004C00084BD85B5816085BDE6E9F0E0E491F0E0AA
:1004D000EE0FFF1FE358FF4F859194919093190100
:1004E00080931801EAEAF0E0E491E093170148C034
:1004F000109280001092810080918100886080932A
:10050000810080918100816080938100E6E9F0E0C4
:10051000E491F0E0EE0FFF1FE358FF4F85919491B7
:100520009093160180931501EAEAF0E0E491E093DC
:10053000140111E025C01092B0001092B10080911A
:10054000B00082608093B0008091B10081608093A0
:10055000B100E6E9F0E0E491F0E0EE0FFF1FE358B0
:10056000FF4F859194919093230180932201EAEAB1
:10057000F0E0E491E093240112E002C017FD7BC19A
:100580000E948800AA24BB24812F8D7F09F0A0C07F
:1005900060E876E988E990E0A50194010E9472067E
:1005A00069017A01DA01C9010197A109B1098F3FF7
:1005B0009105A105B10509F008F442C060ED72E1B2
:1005C00083E190E0A50194010E947206DA01C9015D
:1005D0000197A109B1091230E1F48F3F9105A105FE
:1005E000B10509F008F425C164EB74EC84E090E0F7
:1005F000A50194010E947206DA01C9010197A109BF
:10060000B1098F3F9105A105B10509F088F523E0F7
:1006100058C08F3F9105A105B105A1F098F06AE59A
:1006200072E682E090E0A50194010E947206DA0170
:10063000C9010197A109B109112309F4E0C0D7C08C
:1006400021E001C022E0112371F03BC0D701C601B7
:100650002AE0B595A795979587952A95D1F70197A3
:10066000A109B10925E035B5387F232B25BD61C02F
:100670006AE572E682E090E0A50194010E947206AC
:10068000DA01C9010197A109B1098F3F9105A105BF
:10069000B10509F008F487C06DE271E381E090E0F4
:1006A000A50194010E947206DA01C9010197A1090E
:1006B000B1098F3F9105A105B10511F008F075C092
:1006C00025E03091B100387F232B2093B1002BC05F
:1006D00060E876E988E990E0A50194010E9472063D
:1006E000DA01C9010197A109B109009721E0A20728
:1006F000B10578F06AE572E682E090E0A501940128
:100700000E947206DA01C9010197A109B10933E01B
:1007100001C031E0113039F420918100287F232B72
:100720002093810018C01130B1F0123049F111113D
:10073000A2C087BD8FEF9FEFDC0180931E019093D5
:100740001F01A0932001B093210180916E0082606F
:1007500080936E0090C090938900809388008FEF03
:100760009FEFDC0180931A0190931B01A0931C0161
:10077000B0931D0180916F00826080936F007BC0F9
:100780008093B3008FEF9FEFDC018093250190935E
:100790002601A0932701B093280180917000826008
:1007A0008093700068C024E08CCFBB27F7FCBA951B
:1007B000AF2D9E2D8D2D0197A109B1098F3F910578
:1007C000A105B10591F088F0D701C6015AE0B595B1
:1007D000A795979587955A95D1F70197A109B109E2
:1007E000112309F43FCF27E06CCF26E02CCF8F3FB9
:1007F0009105A105B10509F0C0F624E024CF8F3F93
:100800009105A105B10599F090F0BB27F7FCBA95C9
:10081000AF2D9E2D8D2D0197A109B1098F3F910517
:10082000A105B10511F008F011CF24E01CCF23E0A1
:100830001ACF22E046CFED32F105C1F0CF01C097CB
:100840000A9708F0F8CDAAE0B0E00E9458064F01E0
:10085000FF0FAA08BB08860E971EA81EB91EA50189
:1008600094012053310941095109E5CD11E0E3CD4F
:1008700049015A0105CE0F900F900F900F90DF9114
:10088000CF911F91FF90EF90DF90CF90BF90AF90EE
:100890009F908F9008950E94560181110C94EA0157
:1008A00008950E94B9061F920F920FB60F9211245D
:1008B0002F933F938F939F93AF93BF9380912E017C
:1008C00090912F01A0913001B091310130912D0113
:1008D00026E6230F2D3728F029EE230F0196A11DC0
:1008E000B11D20932D0180932E0190932F01A09391
:1008F0003001B09331018091290190912A01A0919A
:100900002B01B0912C010196A11DB11D80932901ED
:1009100090932A01A0932B01B0932C01BF91AF912A
:100920009F918F913F912F910F900FBE0F901F902D
:1009300018951F920F920FB60F9211242F933F9389
:100940008F939F93AF93BF93EF93FF938091250174
:1009500090912601A0912701B0912801892B8A2B23
:100960008B2B59F180912401E0912201F091230118
:100970009081892780838091250190912601A09103
:100980002701B0912801181619061A061B060CF04B
:1009900080C08091250190912601A0912701B091FE
:1009A00028010197A109B10980932501909326019F
:1009B000A0932701B09328016CC080910001ECE75F
:1009C000F0E0E4919FEF90930001E130B9F098F0EE
:1009D000E230C9F4909170009D7F9093700091E097
:1009E0009093B0009091B100987F94609093B10083
:1009F0001092B30008C010926E0005C090916F0075
:100A00009D7F90936F0090E0FC01E859FF4F249187
:100A1000FC01EB55FF4F3491FC01EF56FF4FE49181
:100A2000EE23B9F1222339F1233091F038F421304B
:100A3000A9F0223001F584B58F7D12C0273091F0E6
:100A40002830A1F02430B9F4809180008F7D03C05C
:100A5000809180008F77809380000DC084B58F7760
:100A600084BD09C08091B0008F7703C08091B00031
:100A70008F7D8093B000F0E0EE0FFF1FE358FF4F33
:100A8000A591B4918FB7F894EC9130953E233C93A7
:100A90008FBFFF91EF91BF91AF919F918F913F9148
:100AA0002F910F900FBE0F901F9018951F920F92CD
:100AB0000FB60F9211242F933F934F935F936F9331
:100AC0007F938F939F93AF93BF93EF93FF9382E3B3
:100AD00091E00E946001FF91EF91BF91AF919F91D2
:100AE0008F917F916F915F914F913F912F910F90D7
:100AF0000FBE0F901F9018951F920F920FB60F9276
:100B000011242F938F939F93EF93FF93E0914201D2
:100B1000F09143018081E0914801F091490182FD0B
:100B200012C0908180914B018F5F8F7320914C0197
:100B3000821751F0E0914B01F0E0EE5CFE4F958F93
:100B400080934B0101C08081FF91EF919F918F9124
:100B50002F910F900FBE0F901F901895789484B529
:100B6000826084BD84B5816084BD85B5826085BDA9
:100B700085B5816085BD80916E00816080936E0037
:100B80001092810080918100826080938100809129
:100B900081008160809381008091800081608093DA
:100BA00080008091B10084608093B1008091B0009A
:100BB00081608093B00080917A00846080937A0095
:100BC00080917A00826080937A0080917A008160BF
:100BD00080937A0080917A00806880937A001092E6
:100BE000C100E0914201F091430182E08083E091F5
:100BF0003E01F0913F011082E0914001F0914101EE
:100C000085E1808310924A01E0914601F09147010D
:100C100086E08083E0914401F0914501808180610C
:100C20008083E0914401F091450180818860808358
:100C3000E0914401F0914501808180688083E091DA
:100C40004401F091450180818F7D80830E9488005E
:100C50000E944B04FDCFE2E3F1E01382128288EEA2
:100C600093E0A0E0B0E084839583A683B78385E01A
:100C700091E09183808385EC90E09587848784EC74
:100C800090E09787868780EC90E0918B808B81EC59
:100C900090E0938B828B82EC90E0958B848B86EC3A
:100CA00090E0978B868B118E128E138E148E089582
:100CB0000E946306A59F900DB49F900DA49F800D88
:100CC000911D11240895A29FB001B39FC001A39F5D
:100CD000700D811D1124911DB29F700D811D112475
:100CE000911D0895052E97FB1EF400940E9489061D
:100CF00057FD07D00E94910607FC03D04EF40C94D8
:100D0000890650954095309521953F4F4F4F5F4F45
:100D1000089590958095709561957F4F8F4F9F4F67
:100D20000895A1E21A2EAA1BBB1BFD010DC0AA1F2C
:100D3000BB1FEE1FFF1FA217B307E407F50720F044
:100D4000A21BB30BE40BF50B661F771F881F991FBF
:100D50001A9469F760957095809590959B01AC0108
:100D6000BD01CF010895EE0FFF1F0590F491E02D16
:100D7000099481E090E0F8940C94BE06F894FFCFBB
:100D8000FF000000008101EA001901C8014A0128A2
:040D9000013C010021
:00000001FF
