:100000000C945D000C9485000C9485000C94850084
:100010000C9485000C9485000C9485000C9485004C
:100020000C9485000C9485000C9485000C9485003C
:100030000C9485000C9485000C9485000C9485002C
:100040000C9493020C9485000C9461020C943B0276
:100050000C9485000C9485000C9485000C9485000C
:100060000C9485000C9485000000000024002700FB
:100070002A0000000000250028002B0004040404CE
:100080000404040402020202020203030303030342
:10009000010204081020408001020408102001021F
:1000A00004081020000000080002010000030407FB
:1000B00000000000000000006F0311241FBECFEFFE
:1000C000D8E0DEBFCDBF11E0A0E0B1E0E6E8F7E0A8
:1000D00002C005900D92A231B107D9F721E0A2E14B
:1000E000B1E001C01D92A83BB207E1F710E0CDE5F9
:1000F000D0E004C02197FE010E94A703CC35D107B0
:10010000C9F70E94D9020C94C1030C940000E9EADB
:10011000F0E02491E5E9F0E09491E1E8F0E0E49189
:10012000EE2309F43BC0222339F1233091F038F457
:100130002130A9F0223001F524B52F7D12C02730DF
:1001400091F02830A1F02430B9F4209180002F7D67
:1001500003C0209180002F77209380000DC024B52C
:100160002F7724BD09C02091B0002F7703C02091C4
:10017000B0002F7D2093B000F0E0EE0FFF1FEE588F
:10018000FF4FA591B4912FB7F894EC91811103C062
:1001900090959E2301C09E2B9C932FBF0895CF92D4
:1001A000DF92EF92FF920F931F93CF93DF936C0137
:1001B0007A018B01C0E0D0E0CE15DF0589F0D801CF
:1001C0006D918D01D601ED91FC910190F081E02DB2
:1001D000C6010995892B11F47E0102C02196ECCF4E
:1001E000C701DF91CF911F910F91FF90EF90DF90AA
:1001F000CF900895089580E090E00895FC01538D1C
:10020000448D252F30E0842F90E0821B930B5417F0
:1002100010F0CF96089501970895FC01918D828D7D
:10022000981761F0828DDF01A80FB11D5D968C914A
:10023000928D9F5F9F73928F90E008958FEF9FEF55
:100240000895FC01918D828D981731F0828DE80F11
:10025000F11D858D90E008958FEF9FEF0895FC01CB
:10026000918D228D892F90E0805C9F4F821B910998
:100270008F73992708958BE191E00E942F0121E06F
:10028000892B09F420E0822F0895FC01848DDF0181
:10029000A80FB11DA35ABF4F2C91848D90E00196F9
:1002A0008F739927848FA689B7892C93A089B189E8
:1002B0008C9180648C93938D848D981306C00288F2
:1002C000F389E02D80818F7D80830895EF92FF92E6
:1002D0000F931F93CF93DF93EC0181E0888F9B8D69
:1002E0008C8D981305C0E889F989808185FD24C02B
:1002F000F62E0B8D10E00F5F1F4F0F731127E02EAE
:100300008C8DE8120CC00FB607FCFACFE889F9898A
:10031000808185FFF5CFCE010E944501F1CF8B8D05
:10032000FE01E80FF11DE35AFF4FF0820B8FEA89BF
:10033000FB898081806207C0EE89FF896083E8893C
:10034000F98980818064808381E090E0DF91CF91A2
:100350001F910F91FF90EF900895CF93DF93EC01E1
:10036000888D8823C9F0EA89FB89808185FD05C0D5
:10037000A889B9898C9186FD0FC00FB607FCF5CF0F
:10038000808185FFF2CFA889B9898C9185FFEDCF57
:10039000CE010E944501E7CFDF91CF9108959FB72D
:1003A000F8944091170150911801609119017091D2
:1003B0001A0186B5A89B06C08F3F21F04F5F5F4FA3
:1003C0006F4F7F4F9FBF762F652F542F44279A0181
:1003D000AB01280F311D411D511DA3E0B0E00E946B
:1003E0009C0308958F929F92AF92BF92CF92DF921B
:1003F000EF92FF928BE191E00E940D0181E00E945B
:1004000087000E94CF014B015C0188EEC82E83E07B
:10041000D82EE12CF12C0E94CF01DC01CB018819F0
:100420009909AA09BB09883E9340A105B10558F076
:1004300021E0C21AD108E108F10888EE880E83E0B5
:10044000981EA11CB11CC114D104E104F10419F7D8
:1004500080E0FF90EF90DF90CF90BF90AF909F90A3
:100460008F900C9487000E943B0181110C94F20143
:1004700008950E94BC031F920F920FB60F92112491
:100480002F933F934F935F936F937F938F939F939C
:10049000AF93BF93EF93FF938BE191E00E944501EF
:1004A000FF91EF91BF91AF919F918F917F916F914C
:1004B0005F914F913F912F910F900FBE0F901F9022
:1004C00018951F920F920FB60F9211242F938F93AE
:1004D0009F93EF93FF93E0912B01F0912C0180818A
:1004E000E0913101F091320182FD12C09081809142
:1004F00034018F5F8F7320913501821751F0E091A5
:100500003401F0E0E55EFE4F958F8093340101C029
:100510008081FF91EF919F918F912F910F900FBE4E
:100520000F901F9018951F920F920FB60F921124E3
:100530002F933F938F939F93AF93BF93809113011A
:1005400090911401A0911501B09116013091120102
:1005500026E6230F2D3728F029EE230F0196A11D43
:10056000B11D209312018093130190931401A09365
:100570001501B09316018091170190911801A09177
:100580001901B0911A010196A11DB11D80931701A7
:1005900090931801A0931901B0931A01BF91AF91E4
:1005A0009F918F913F912F910F900FBE0F901F90B1
:1005B0001895789484B5826084BD84B5816084BDCB
:1005C00085B5826085BD85B5816085BD80916E00F1
:1005D000816080936E001092810080918100826022
:1005E000809381008091810081608093810080915F
:1005F00080008160809380008091B100846080934E
:10060000B1008091B00081608093B00080917A0049
:10061000846080937A0080917A00826080937A006F
:1006200080917A00816080937A0080917A0080685E
:1006300080937A001092C100E0912B01F0912C017F
:1006400082E08083E0912701F09128011082E091FF
:100650002901F0912A0185E1808310923301E09114
:100660002F01F091300186E08083E0912D01F0911F
:100670002E01808180618083E0912D01F0912E0117
:10068000808188608083E0912D01F0912E0180812E
:1006900080688083E0912D01F0912E0180818F7D13
:1006A0008083E5E9F0E02491E1E8F0E0849188239B
:1006B00099F090E0880F991FFC01E859FF4FA59130
:1006C000B491FC01EE58FF4F859194918FB7F89447
:1006D000EC91E22BEC938FBF0E943302FDCFEBE154
:1006E000F1E01382128288EE93E0A0E0B0E0848310
:1006F0009583A683B78384E091E09183808385EC22
:1007000090E09587848784EC90E09787868780ECDB
:1007100090E0918B808B81EC90E0938B828B82ECCC
:1007200090E0958B848B86EC90E0978B868B118E76
:10073000128E138E148E08950E94AD03A59F900D06
:10074000B49F900DA49F800D911D11240895EE0F6C
:10075000FF1F0590F491E02D0994A29FB001B39F73
:10076000C001A39F700D811D1124911DB29F700DBA
:10077000811D1124911D089581E090E0F8940C945E
:06078000C103F894FFCF55
:10078600000000006601CF00FE00AD012F010D0143
:0207960021013F
:00000001FF
